{
  "transactions": [
    {
      "hash": "0x985702a638811076e82d2855e66d8a0b11a34784b68170b40326c95dd6641ae4",
      "transactionType": "CALL",
      "contractName": null,
      "contractAddress": "0x35b586834b11dca235b1007faa312aa523ab6802",
      "function": "deployAndInitialize(bytes32,bytes,string,string)",
      "arguments": [
        "0x000000000000000000000000000000000000000000000000000000000022cd48",
        "0x00000000000000000000000000000000000000000000000000000000000007e80000000000000000000000000000000000000000000000000000000000000055000000000000000000000000000000000000000000000000000000000000002a",
        "(uint256 year, uint256 confidence, uint256 category)",
        "This is a knowledge base entry about artificial intelligence and machine learning."
      ],
      "transaction": {
        "from": "0x1aa44c933a6718a4bc44064f0067a853c34be9b0",
        "to": "0x35b586834b11dca235b1007faa312aa523ab6802",
        "gas": "0x13458b",
        "value": "0x0",
        "input": "0x783eecc5000000000000000000000000000000000000000000000000000000000022cd48000000000000000000000000000000000000000000000000000000000000008000000000000000000000000000000000000000000000000000000000000001000000000000000000000000000000000000000000000000000000000000000160000000000000000000000000000000000000000000000000000000000000006000000000000000000000000000000000000000000000000000000000000007e80000000000000000000000000000000000000000000000000000000000000055000000000000000000000000000000000000000000000000000000000000002a00000000000000000000000000000000000000000000000000000000000000342875696e7432353620796561722c2075696e7432353620636f6e666964656e63652c2075696e743235362063617465676f7279290000000000000000000000000000000000000000000000000000000000000000000000000000000000000052546869732069732061206b6e6f776c65646765206261736520656e7472792061626f7574206172746966696369616c20696e74656c6c6967656e636520616e64206d616368696e65206c6561726e696e672e0000000000000000000000000000",
        "nonce": "0x2",
        "chainId": "0xaa36a7"
      },
      "additionalContracts": [
        {
          "transactionType": "CREATE2",
          "address": "0x16746175f413e9edce093918e3c43fe3d1c8428e",
          "initCode": "0x6080604052348015600e575f5ffd5b50610b518061001c5f395ff3fe608060405234801561000f575f5ffd5b506004361061004a575f3560e01c80633bc5de301461004e578063679b09711461006c578063b40e203a1461008a578063c117db0b146100a8575b5f5ffd5b6100566100c4565b6040516100639190610380565b60405180910390f35b610074610154565b60405161008191906103f2565b60405180910390f35b6100926101e4565b60405161009f91906103f2565b60405180910390f35b6100c260048036038101906100bd91906105ed565b610274565b005b6060600180546100d3906106be565b80601f01602080910402602001604051908101604052809291908181526020018280546100ff906106be565b801561014a5780601f106101215761010080835404028352916020019161014a565b820191905f5260205f20905b81548152906001019060200180831161012d57829003601f168201915b5050505050905090565b606060038054610163906106be565b80601f016020809104026020016040519081016040528092919081815260200182805461018f906106be565b80156101da5780601f106101b1576101008083540402835291602001916101da565b820191905f5260205f20905b8154815290600101906020018083116101bd57829003601f168201915b5050505050905090565b6060600280546101f3906106be565b80601f016020809104026020016040519081016040528092919081815260200182805461021f906106be565b801561026a5780601f106102415761010080835404028352916020019161026a565b820191905f5260205f20905b81548152906001019060200180831161024d57829003601f168201915b5050505050905090565b5f5f9054906101000a900460ff16156102c2576040517f08c379a00000000000000000000000000000000000000000000000000000000081526004016102b99061075e565b60405180910390fd5b60015f5f6101000a81548160ff02191690831515021790555082600190816102ea9190610925565b5081600290816102fa9190610a4c565b50806003908161030a9190610a4c565b50505050565b5f81519050919050565b5f82825260208201905092915050565b8281835e5f83830152505050565b5f601f19601f8301169050919050565b5f61035282610310565b61035c818561031a565b935061036c81856020860161032a565b61037581610338565b840191505092915050565b5f6020820190508181035f8301526103988184610348565b905092915050565b5f81519050919050565b5f82825260208201905092915050565b5f6103c4826103a0565b6103ce81856103aa565b93506103de81856020860161032a565b6103e781610338565b840191505092915050565b5f6020820190508181035f83015261040a81846103ba565b905092915050565b5f604051905090565b5f5ffd5b5f5ffd5b5f5ffd5b5f5ffd5b7f4e487b71000000000000000000000000000000000000000000000000000000005f52604160045260245ffd5b61046182610338565b810181811067ffffffffffffffff821117156104805761047f61042b565b5b80604052505050565b5f610492610412565b905061049e8282610458565b919050565b5f67ffffffffffffffff8211156104bd576104bc61042b565b5b6104c682610338565b9050602081019050919050565b828183375f83830152505050565b5f6104f36104ee846104a3565b610489565b90508281526020810184848401111561050f5761050e610427565b5b61051a8482856104d3565b509392505050565b5f82601f83011261053657610535610423565b5b81356105468482602086016104e1565b91505092915050565b5f67ffffffffffffffff8211156105695761056861042b565b5b61057282610338565b9050602081019050919050565b5f61059161058c8461054f565b610489565b9050828152602081018484840111156105ad576105ac610427565b5b6105b88482856104d3565b509392505050565b5f82601f8301126105d4576105d3610423565b5b81356105e484826020860161057f565b91505092915050565b5f5f5f606084860312156106045761060361041b565b5b5f84013567ffffffffffffffff8111156106215761062061041f565b5b61062d86828701610522565b935050602084013567ffffffffffffffff81111561064e5761064d61041f565b5b61065a868287016105c0565b925050604084013567ffffffffffffffff81111561067b5761067a61041f565b5b610687868287016105c0565b9150509250925092565b7f4e487b71000000000000000000000000000000000000000000000000000000005f52602260045260245ffd5b5f60028204905060018216806106d557607f821691505b6020821081036106e8576106e7610691565b5b50919050565b7f4368696c64436f6e74726163743a20416c726561647920696e697469616c697a5f8201527f6564000000000000000000000000000000000000000000000000000000000000602082015250565b5f6107486022836103aa565b9150610753826106ee565b604082019050919050565b5f6020820190508181035f8301526107758161073c565b9050919050565b5f819050815f5260205f209050919050565b5f6020601f8301049050919050565b5f82821b905092915050565b5f600883026107d87fffffffffffffffffffffffffffffffffffffffffffffffffffffffffffffffff8261079d565b6107e2868361079d565b95508019841693508086168417925050509392505050565b5f819050919050565b5f819050919050565b5f61082661082161081c846107fa565b610803565b6107fa565b9050919050565b5f819050919050565b61083f8361080c565b61085361084b8261082d565b8484546107a9565b825550505050565b5f5f905090565b61086a61085b565b610875818484610836565b505050565b5b818110156108985761088d5f82610862565b60018101905061087b565b5050565b601f8211156108dd576108ae8161077c565b6108b78461078e565b810160208510156108c6578190505b6108da6108d28561078e565b83018261087a565b50505b505050565b5f82821c905092915050565b5f6108fd5f19846008026108e2565b1980831691505092915050565b5f61091583836108ee565b9150826002028217905092915050565b61092e82610310565b67ffffffffffffffff8111156109475761094661042b565b5b61095182546106be565b61095c82828561089c565b5f60209050601f83116001811461098d575f841561097b578287015190505b610985858261090a565b8655506109ec565b601f19841661099b8661077c565b5f5b828110156109c25784890151825560018201915060208501945060208101905061099d565b868310156109df57848901516109db601f8916826108ee565b8355505b6001600288020188555050505b505050505050565b5f819050815f5260205f209050919050565b601f821115610a4757610a18816109f4565b610a218461078e565b81016020851015610a30578190505b610a44610a3c8561078e565b83018261087a565b50505b505050565b610a55826103a0565b67ffffffffffffffff811115610a6e57610a6d61042b565b5b610a7882546106be565b610a83828285610a06565b5f60209050601f831160018114610ab4575f8415610aa2578287015190505b610aac858261090a565b865550610b13565b601f198416610ac2866109f4565b5f5b82811015610ae957848901518255600182019150602085019450602081019050610ac4565b86831015610b065784890151610b02601f8916826108ee565b8355505b6001600288020188555050505b50505050505056fea264697066735822122008d9f61a8827511916801963195e0327ef6b6a10a58114ffe122ca911f801dc464736f6c634300081c0033"
        }
      ],
      "isFixedGasLimit": false
    }
  ],
  "receipts": [
    {
      "status": "0x1",
      "cumulativeGasUsed": "0x92c6d0",
      "logs": [
        {
          "address": "0x35b586834b11dca235b1007faa312aa523ab6802",
          "topics": [
            "0x94bfd9af14ef450884c8a7ddb5734e2e1e14e70a1c84f0801cc5a29e34d26428",
            "0x00000000000000000000000016746175f413e9edce093918e3c43fe3d1c8428e",
            "0x000000000000000000000000000000000000000000000000000000000022cd48"
          ],
          "data": "0x",
          "blockHash": "0x6fabc094c810eda1dc40ccf2c965aff564b193c809745dd484296fe784c94ff0",
          "blockNumber": "0x8c7348",
          "blockTimestamp": "0x68c73af8",
          "transactionHash": "0x985702a638811076e82d2855e66d8a0b11a34784b68170b40326c95dd6641ae4",
          "transactionIndex": "0x56",
          "logIndex": "0x82",
          "removed": false
        }
      ],
      "logsBloom": "0x00000000000000000000000000010000000000000000000000000000000000000000000000000000000000000010000000000000000000000000000001000000001000000000000020000000000000000000000000000000000000000000000000000000000020000000000000000000000100000000000000000000000000200000000000000000008000000000000000000000000000000000000000000000000000000000000000002000000000000000000000000000000000000000004000000000000000000000000000000000000000000000000000000000000000000000800000000000000000000000000000000000000000000000000000000000",
      "type": "0x2",
      "transactionHash": "0x985702a638811076e82d2855e66d8a0b11a34784b68170b40326c95dd6641ae4",
      "transactionIndex": "0x56",
      "blockHash": "0x6fabc094c810eda1dc40ccf2c965aff564b193c809745dd484296fe784c94ff0",
      "blockNumber": "0x8c7348",
      "gasUsed": "0xdf3cd",
      "effectiveGasPrice": "0xfbabf",
      "from": "0x1aa44c933a6718a4bc44064f0067a853c34be9b0",
      "to": "0x35b586834b11dca235b1007faa312aa523ab6802",
      "contractAddress": null
    }
  ],
  "libraries": [],
  "pending": [],
  "returns": {},
  "timestamp": 1757887224,
  "chain": 11155111,
  "commit": "f840530"
}